{
  "abi": [
    {
      "inputs": [
        {
          "internalType": "address",
          "name": "_dyad",
          "type": "address"
        },
        {
          "internalType": "address",
          "name": "_oracle",
          "type": "address"
        },
        {
          "internalType": "address[]",
          "name": "_insiders",
          "type": "address[]"
        }
      ],
      "stateMutability": "nonpayable",
      "type": "constructor"
    },
    {
      "inputs": [
        {
          "internalType": "uint256",
          "name": "id",
          "type": "uint256"
        },
        {
          "internalType": "uint256",
          "name": "syncedBlock",
          "type": "uint256"
        }
      ],
      "name": "AlreadyClaimed",
      "type": "error"
    },
    {
      "inputs": [
        {
          "internalType": "uint256",
          "name": "id",
          "type": "uint256"
        },
        {
          "internalType": "uint256",
          "name": "syncedBlock",
          "type": "uint256"
        }
      ],
      "name": "AlreadySniped",
      "type": "error"
    },
    {
      "inputs": [
        {
          "internalType": "uint256",
          "name": "blockNumber",
          "type": "uint256"
        }
      ],
      "name": "CannotDepositAndWithdrawInSameBlock",
      "type": "error"
    },
    {
      "inputs": [
        {
          "internalType": "uint256",
          "name": "cr",
          "type": "uint256"
        }
      ],
      "name": "CrTooLow",
      "type": "error"
    },
    {
      "inputs": [
        {
          "internalType": "uint256",
          "name": "id",
          "type": "uint256"
        }
      ],
      "name": "DNftDoesNotExist",
      "type": "error"
    },
    {
      "inputs": [
        {
          "internalType": "uint256",
          "name": "id",
          "type": "uint256"
        }
      ],
      "name": "DepositIsNegative",
      "type": "error"
    },
    {
      "inputs": [],
      "name": "DyadTotalSupplyZero",
      "type": "error"
    },
    {
      "inputs": [
        {
          "internalType": "uint256",
          "name": "averageTVL",
          "type": "uint256"
        }
      ],
      "name": "ExceedsAverageTVL",
      "type": "error"
    },
    {
      "inputs": [
        {
          "internalType": "int256",
          "name": "deposit",
          "type": "int256"
        }
      ],
      "name": "ExceedsDepositBalance",
      "type": "error"
    },
    {
      "inputs": [
        {
          "internalType": "uint256",
          "name": "amount",
          "type": "uint256"
        }
      ],
      "name": "ExceedsWithdrawalBalance",
      "type": "error"
    },
    {
      "inputs": [
        {
          "internalType": "address",
          "name": "to",
          "type": "address"
        },
        {
          "internalType": "uint256",
          "name": "amount",
          "type": "uint256"
        }
      ],
      "name": "FailedEthTransfer",
      "type": "error"
    },
    {
      "inputs": [
        {
          "internalType": "uint256",
          "name": "id",
          "type": "uint256"
        }
      ],
      "name": "IsActive",
      "type": "error"
    },
    {
      "inputs": [
        {
          "internalType": "uint256",
          "name": "id",
          "type": "uint256"
        }
      ],
      "name": "IsInactive",
      "type": "error"
    },
    {
      "inputs": [
        {
          "internalType": "uint256",
          "name": "id",
          "type": "uint256"
        },
        {
          "internalType": "enum DNft.Permission",
          "name": "permission",
          "type": "uint8"
        }
      ],
      "name": "MissingPermission",
      "type": "error"
    },
    {
      "inputs": [
        {
          "internalType": "int256",
          "name": "amount",
          "type": "int256"
        }
      ],
      "name": "NotEnoughToCoverDepositMinimum",
      "type": "error"
    },
    {
      "inputs": [
        {
          "internalType": "int256",
          "name": "amount",
          "type": "int256"
        }
      ],
      "name": "NotEnoughToCoverNegativeDeposit",
      "type": "error"
    },
    {
      "inputs": [
        {
          "internalType": "uint256",
          "name": "id",
          "type": "uint256"
        }
      ],
      "name": "NotLiquidatable",
      "type": "error"
    },
    {
      "inputs": [
        {
          "internalType": "uint256",
          "name": "id",
          "type": "uint256"
        }
      ],
      "name": "NotNFTOwner",
      "type": "error"
    },
    {
      "inputs": [
        {
          "internalType": "int256",
          "name": "priceChange",
          "type": "int256"
        }
      ],
      "name": "PriceChangeTooSmall",
      "type": "error"
    },
    {
      "inputs": [],
      "name": "ReachedMaxSupply",
      "type": "error"
    },
    {
      "inputs": [],
      "name": "SyncTooSoon",
      "type": "error"
    },
    {
      "inputs": [
        {
          "internalType": "uint256",
          "name": "id",
          "type": "uint256"
        }
      ],
      "name": "WithdrawalsNotZero",
      "type": "error"
    },
    {
      "anonymous": false,
      "inputs": [
        {
          "indexed": false,
          "internalType": "uint256",
          "name": "id",
          "type": "uint256"
        }
      ],
      "name": "Activated",
      "type": "event"
    },
    {
      "anonymous": false,
      "inputs": [
        {
          "indexed": true,
          "internalType": "address",
          "name": "owner",
          "type": "address"
        },
        {
          "indexed": true,
          "internalType": "address",
          "name": "approved",
          "type": "address"
        },
        {
          "indexed": true,
          "internalType": "uint256",
          "name": "tokenId",
          "type": "uint256"
        }
      ],
      "name": "Approval",
      "type": "event"
    },
    {
      "anonymous": false,
      "inputs": [
        {
          "indexed": true,
          "internalType": "address",
          "name": "owner",
          "type": "address"
        },
        {
          "indexed": true,
          "internalType": "address",
          "name": "operator",
          "type": "address"
        },
        {
          "indexed": false,
          "internalType": "bool",
          "name": "approved",
          "type": "bool"
        }
      ],
      "name": "ApprovalForAll",
      "type": "event"
    },
    {
      "anonymous": false,
      "inputs": [
        {
          "indexed": true,
          "internalType": "uint256",
          "name": "id",
          "type": "uint256"
        },
        {
          "indexed": false,
          "internalType": "int256",
          "name": "share",
          "type": "int256"
        }
      ],
      "name": "Claimed",
      "type": "event"
    },
    {
      "anonymous": false,
      "inputs": [
        {
          "indexed": false,
          "internalType": "uint256",
          "name": "id",
          "type": "uint256"
        }
      ],
      "name": "Deactivated",
      "type": "event"
    },
    {
      "anonymous": false,
      "inputs": [
        {
          "indexed": true,
          "internalType": "uint256",
          "name": "id",
          "type": "uint256"
        },
        {
          "indexed": false,
          "internalType": "uint256",
          "name": "amount",
          "type": "uint256"
        }
      ],
      "name": "Deposited",
      "type": "event"
    },
    {
      "anonymous": false,
      "inputs": [
        {
          "indexed": true,
          "internalType": "uint256",
          "name": "id",
          "type": "uint256"
        },
        {
          "indexed": false,
          "internalType": "int256",
          "name": "amount",
          "type": "int256"
        }
      ],
      "name": "Exchanged",
      "type": "event"
    },
    {
      "anonymous": false,
      "inputs": [
        {
          "indexed": true,
          "internalType": "address",
          "name": "to",
          "type": "address"
        },
        {
          "indexed": true,
          "internalType": "uint256",
          "name": "id",
          "type": "uint256"
        }
      ],
      "name": "Liquidated",
      "type": "event"
    },
    {
      "anonymous": false,
      "inputs": [
        {
          "indexed": true,
          "internalType": "address",
          "name": "to",
          "type": "address"
        },
        {
          "indexed": true,
          "internalType": "uint256",
          "name": "id",
          "type": "uint256"
        }
      ],
      "name": "Minted",
      "type": "event"
    },
    {
      "anonymous": false,
      "inputs": [
        {
          "indexed": false,
          "internalType": "uint256",
          "name": "tokenId",
          "type": "uint256"
        },
        {
          "components": [
            {
              "internalType": "address",
              "name": "operator",
              "type": "address"
            },
            {
              "internalType": "enum DNft.Permission[]",
              "name": "permissions",
              "type": "uint8[]"
            }
          ],
          "indexed": false,
          "internalType": "struct DNft.PermissionSet[]",
          "name": "permissions",
          "type": "tuple[]"
        }
      ],
      "name": "Modified",
      "type": "event"
    },
    {
      "anonymous": false,
      "inputs": [
        {
          "indexed": true,
          "internalType": "uint256",
          "name": "from",
          "type": "uint256"
        },
        {
          "indexed": true,
          "internalType": "uint256",
          "name": "to",
          "type": "uint256"
        },
        {
          "indexed": false,
          "internalType": "int256",
          "name": "amount",
          "type": "int256"
        }
      ],
      "name": "Moved",
      "type": "event"
    },
    {
      "anonymous": false,
      "inputs": [
        {
          "indexed": true,
          "internalType": "address",
          "name": "to",
          "type": "address"
        },
        {
          "indexed": true,
          "internalType": "uint256",
          "name": "id",
          "type": "uint256"
        },
        {
          "indexed": false,
          "internalType": "uint256",
          "name": "amount",
          "type": "uint256"
        }
      ],
      "name": "Redeemed",
      "type": "event"
    },
    {
      "anonymous": false,
      "inputs": [
        {
          "indexed": true,
          "internalType": "uint256",
          "name": "from",
          "type": "uint256"
        },
        {
          "indexed": true,
          "internalType": "uint256",
          "name": "to",
          "type": "uint256"
        },
        {
          "indexed": false,
          "internalType": "int256",
          "name": "share",
          "type": "int256"
        }
      ],
      "name": "Sniped",
      "type": "event"
    },
    {
      "anonymous": false,
      "inputs": [
        {
          "indexed": false,
          "internalType": "uint256",
          "name": "id",
          "type": "uint256"
        }
      ],
      "name": "Synced",
      "type": "event"
    },
    {
      "anonymous": false,
      "inputs": [
        {
          "indexed": true,
          "internalType": "address",
          "name": "from",
          "type": "address"
        },
        {
          "indexed": true,
          "internalType": "address",
          "name": "to",
          "type": "address"
        },
        {
          "indexed": true,
          "internalType": "uint256",
          "name": "tokenId",
          "type": "uint256"
        }
      ],
      "name": "Transfer",
      "type": "event"
    },
    {
      "anonymous": false,
      "inputs": [
        {
          "indexed": true,
          "internalType": "uint256",
          "name": "from",
          "type": "uint256"
        },
        {
          "indexed": true,
          "internalType": "address",
          "name": "to",
          "type": "address"
        },
        {
          "indexed": false,
          "internalType": "uint256",
          "name": "amount",
          "type": "uint256"
        }
      ],
      "name": "Withdrawn",
      "type": "event"
    },
    {
      "inputs": [],
      "name": "DIBS_MINT_SHARE_REWARD",
      "outputs": [
        {
          "internalType": "int256",
          "name": "",
          "type": "int256"
        }
      ],
      "stateMutability": "view",
      "type": "function"
    },
    {
      "inputs": [],
      "name": "MAX_SUPPLY",
      "outputs": [
        {
          "internalType": "uint256",
          "name": "",
          "type": "uint256"
        }
      ],
      "stateMutability": "view",
      "type": "function"
    },
    {
      "inputs": [],
      "name": "MIN_COLLATERIZATION_RATIO",
      "outputs": [
        {
          "internalType": "uint256",
          "name": "",
          "type": "uint256"
        }
      ],
      "stateMutability": "view",
      "type": "function"
    },
    {
      "inputs": [],
      "name": "MIN_MINT_DYAD_DEPOSIT",
      "outputs": [
        {
          "internalType": "int256",
          "name": "",
          "type": "int256"
        }
      ],
      "stateMutability": "view",
      "type": "function"
    },
    {
      "inputs": [],
      "name": "MIN_PRICE_CHANGE_BETWEEN_SYNC",
      "outputs": [
        {
          "internalType": "uint256",
          "name": "",
          "type": "uint256"
        }
      ],
      "stateMutability": "view",
      "type": "function"
    },
    {
      "inputs": [],
      "name": "MIN_TIME_BETWEEN_SYNC",
      "outputs": [
        {
          "internalType": "uint256",
          "name": "",
          "type": "uint256"
        }
      ],
      "stateMutability": "view",
      "type": "function"
    },
    {
      "inputs": [],
      "name": "XP_CLAIM_REWARD",
      "outputs": [
        {
          "internalType": "uint256",
          "name": "",
          "type": "uint256"
        }
      ],
      "stateMutability": "view",
      "type": "function"
    },
    {
      "inputs": [],
      "name": "XP_DIBS_BURN_REWARD",
      "outputs": [
        {
          "internalType": "uint256",
          "name": "",
          "type": "uint256"
        }
      ],
      "stateMutability": "view",
      "type": "function"
    },
    {
      "inputs": [],
      "name": "XP_DIBS_MINT_REWARD",
      "outputs": [
        {
          "internalType": "uint256",
          "name": "",
          "type": "uint256"
        }
      ],
      "stateMutability": "view",
      "type": "function"
    },
    {
      "inputs": [],
      "name": "XP_LIQUIDATION_REWARD",
      "outputs": [
        {
          "internalType": "uint256",
          "name": "",
          "type": "uint256"
        }
      ],
      "stateMutability": "view",
      "type": "function"
    },
    {
      "inputs": [],
      "name": "XP_MINT_REWARD",
      "outputs": [
        {
          "internalType": "uint256",
          "name": "",
          "type": "uint256"
        }
      ],
      "stateMutability": "view",
      "type": "function"
    },
    {
      "inputs": [],
      "name": "XP_NORM_FACTOR",
      "outputs": [
        {
          "internalType": "uint256",
          "name": "",
          "type": "uint256"
        }
      ],
      "stateMutability": "view",
      "type": "function"
    },
    {
      "inputs": [],
      "name": "XP_SYNC_REWARD",
      "outputs": [
        {
          "internalType": "uint256",
          "name": "",
          "type": "uint256"
        }
      ],
      "stateMutability": "view",
      "type": "function"
    },
    {
      "inputs": [
        {
          "internalType": "uint256",
          "name": "",
          "type": "uint256"
        }
      ],
      "name": "_idToBlockOfLastDeposit",
      "outputs": [
        {
          "internalType": "uint256",
          "name": "",
          "type": "uint256"
        }
      ],
      "stateMutability": "view",
      "type": "function"
    },
    {
      "inputs": [
        {
          "internalType": "uint256",
          "name": "id",
          "type": "uint256"
        }
      ],
      "name": "activate",
      "outputs": [],
      "stateMutability": "nonpayable",
      "type": "function"
    },
    {
      "inputs": [
        {
          "internalType": "address",
          "name": "to",
          "type": "address"
        },
        {
          "internalType": "uint256",
          "name": "tokenId",
          "type": "uint256"
        }
      ],
      "name": "approve",
      "outputs": [],
      "stateMutability": "nonpayable",
      "type": "function"
    },
    {
      "inputs": [
        {
          "internalType": "address",
          "name": "owner",
          "type": "address"
        }
      ],
      "name": "balanceOf",
      "outputs": [
        {
          "internalType": "uint256",
          "name": "",
          "type": "uint256"
        }
      ],
      "stateMutability": "view",
      "type": "function"
    },
    {
      "inputs": [
        {
          "internalType": "uint256",
          "name": "id",
          "type": "uint256"
        }
      ],
      "name": "claim",
      "outputs": [
        {
          "internalType": "int256",
          "name": "",
          "type": "int256"
        }
      ],
      "stateMutability": "nonpayable",
      "type": "function"
    },
    {
      "inputs": [
        {
          "internalType": "uint256",
          "name": "id",
          "type": "uint256"
        }
      ],
      "name": "deactivate",
      "outputs": [],
      "stateMutability": "nonpayable",
      "type": "function"
    },
    {
      "inputs": [
        {
          "internalType": "uint256",
          "name": "id",
          "type": "uint256"
        },
        {
          "internalType": "uint256",
          "name": "amount",
          "type": "uint256"
        }
      ],
      "name": "deposit",
      "outputs": [
        {
          "internalType": "uint256",
          "name": "",
          "type": "uint256"
        }
      ],
      "stateMutability": "nonpayable",
      "type": "function"
    },
    {
      "inputs": [],
      "name": "dyad",
      "outputs": [
        {
          "internalType": "contract Dyad",
          "name": "",
          "type": "address"
        }
      ],
      "stateMutability": "view",
      "type": "function"
    },
    {
      "inputs": [],
      "name": "dyadDelta",
      "outputs": [
        {
          "internalType": "int256",
          "name": "",
          "type": "int256"
        }
      ],
      "stateMutability": "view",
      "type": "function"
    },
    {
      "inputs": [
        {
          "internalType": "uint256",
          "name": "id",
          "type": "uint256"
        }
      ],
      "name": "exchange",
      "outputs": [
        {
          "internalType": "int256",
          "name": "",
          "type": "int256"
        }
      ],
      "stateMutability": "payable",
      "type": "function"
    },
    {
      "inputs": [
        {
          "internalType": "uint256",
          "name": "tokenId",
          "type": "uint256"
        }
      ],
      "name": "getApproved",
      "outputs": [
        {
          "internalType": "address",
          "name": "",
          "type": "address"
        }
      ],
      "stateMutability": "view",
      "type": "function"
    },
    {
      "inputs": [
        {
          "internalType": "uint256",
          "name": "_id",
          "type": "uint256"
        },
        {
          "components": [
            {
              "internalType": "address",
              "name": "operator",
              "type": "address"
            },
            {
              "internalType": "enum DNft.Permission[]",
              "name": "permissions",
              "type": "uint8[]"
            }
          ],
          "internalType": "struct DNft.PermissionSet[]",
          "name": "_permissionSets",
          "type": "tuple[]"
        }
      ],
      "name": "grant",
      "outputs": [],
      "stateMutability": "nonpayable",
      "type": "function"
    },
    {
      "inputs": [
        {
          "internalType": "uint256",
          "name": "id",
          "type": "uint256"
        },
        {
          "internalType": "address",
          "name": "operator",
          "type": "address"
        },
        {
          "internalType": "enum DNft.Permission",
          "name": "permission",
          "type": "uint8"
        }
      ],
      "name": "hasPermission",
      "outputs": [
        {
          "internalType": "bool",
          "name": "",
          "type": "bool"
        }
      ],
      "stateMutability": "view",
      "type": "function"
    },
    {
      "inputs": [
        {
          "internalType": "uint256",
          "name": "id",
          "type": "uint256"
        },
        {
          "internalType": "address",
          "name": "operator",
          "type": "address"
        },
        {
          "internalType": "enum DNft.Permission[]",
          "name": "permissions",
          "type": "uint8[]"
        }
      ],
      "name": "hasPermissions",
      "outputs": [
        {
          "internalType": "bool[]",
          "name": "_hasPermissions",
          "type": "bool[]"
        }
      ],
      "stateMutability": "view",
      "type": "function"
    },
    {
      "inputs": [
        {
          "internalType": "uint256",
          "name": "",
          "type": "uint256"
        },
        {
          "internalType": "uint256",
          "name": "",
          "type": "uint256"
        }
      ],
      "name": "idToClaimed",
      "outputs": [
        {
          "internalType": "bool",
          "name": "",
          "type": "bool"
        }
      ],
      "stateMutability": "view",
      "type": "function"
    },
    {
      "inputs": [
        {
          "internalType": "uint256",
          "name": "",
          "type": "uint256"
        }
      ],
      "name": "idToNft",
      "outputs": [
        {
          "internalType": "uint256",
          "name": "xp",
          "type": "uint256"
        },
        {
          "internalType": "int256",
          "name": "deposit",
          "type": "int256"
        },
        {
          "internalType": "uint256",
          "name": "withdrawal",
          "type": "uint256"
        },
        {
          "internalType": "uint256",
          "name": "lastOwnershipChange",
          "type": "uint256"
        },
        {
          "internalType": "bool",
          "name": "isActive",
          "type": "bool"
        }
      ],
      "stateMutability": "view",
      "type": "function"
    },
    {
      "inputs": [
        {
          "internalType": "uint256",
          "name": "",
          "type": "uint256"
        },
        {
          "internalType": "address",
          "name": "",
          "type": "address"
        }
      ],
      "name": "idToNftPermission",
      "outputs": [
        {
          "internalType": "uint8",
          "name": "permissions",
          "type": "uint8"
        },
        {
          "internalType": "uint248",
          "name": "lastUpdated",
          "type": "uint248"
        }
      ],
      "stateMutability": "view",
      "type": "function"
    },
    {
      "inputs": [
        {
          "internalType": "address",
          "name": "owner",
          "type": "address"
        },
        {
          "internalType": "address",
          "name": "operator",
          "type": "address"
        }
      ],
      "name": "isApprovedForAll",
      "outputs": [
        {
          "internalType": "bool",
          "name": "",
          "type": "bool"
        }
      ],
      "stateMutability": "view",
      "type": "function"
    },
    {
      "inputs": [],
      "name": "lastEthPrice",
      "outputs": [
        {
          "internalType": "int256",
          "name": "",
          "type": "int256"
        }
      ],
      "stateMutability": "view",
      "type": "function"
    },
    {
      "inputs": [
        {
          "internalType": "uint256",
          "name": "id",
          "type": "uint256"
        },
        {
          "internalType": "address",
          "name": "to",
          "type": "address"
        }
      ],
      "name": "liquidate",
      "outputs": [],
      "stateMutability": "payable",
      "type": "function"
    },
    {
      "inputs": [],
      "name": "maxXp",
      "outputs": [
        {
          "internalType": "uint256",
          "name": "",
          "type": "uint256"
        }
      ],
      "stateMutability": "view",
      "type": "function"
    },
    {
      "inputs": [
        {
          "internalType": "address",
          "name": "to",
          "type": "address"
        }
      ],
      "name": "mint",
      "outputs": [
        {
          "internalType": "uint256",
          "name": "",
          "type": "uint256"
        }
      ],
      "stateMutability": "payable",
      "type": "function"
    },
    {
      "inputs": [
        {
          "internalType": "uint256",
          "name": "_from",
          "type": "uint256"
        },
        {
          "internalType": "uint256",
          "name": "_to",
          "type": "uint256"
        },
        {
          "internalType": "int256",
          "name": "_amount",
          "type": "int256"
        }
      ],
      "name": "move",
      "outputs": [
        {
          "internalType": "int256",
          "name": "",
          "type": "int256"
        }
      ],
      "stateMutability": "nonpayable",
      "type": "function"
    },
    {
      "inputs": [],
      "name": "name",
      "outputs": [
        {
          "internalType": "string",
          "name": "",
          "type": "string"
        }
      ],
      "stateMutability": "view",
      "type": "function"
    },
    {
      "inputs": [
        {
          "internalType": "uint256",
          "name": "tokenId",
          "type": "uint256"
        }
      ],
      "name": "ownerOf",
      "outputs": [
        {
          "internalType": "address",
          "name": "",
          "type": "address"
        }
      ],
      "stateMutability": "view",
      "type": "function"
    },
    {
      "inputs": [],
      "name": "prevDyadDelta",
      "outputs": [
        {
          "internalType": "int256",
          "name": "",
          "type": "int256"
        }
      ],
      "stateMutability": "view",
      "type": "function"
    },
    {
      "inputs": [],
      "name": "prevSyncedBlock",
      "outputs": [
        {
          "internalType": "uint256",
          "name": "",
          "type": "uint256"
        }
      ],
      "stateMutability": "view",
      "type": "function"
    },
    {
      "inputs": [
        {
          "internalType": "uint256",
          "name": "from",
          "type": "uint256"
        },
        {
          "internalType": "address",
          "name": "to",
          "type": "address"
        },
        {
          "internalType": "uint256",
          "name": "amount",
          "type": "uint256"
        }
      ],
      "name": "redeem",
      "outputs": [
        {
          "internalType": "uint256",
          "name": "",
          "type": "uint256"
        }
      ],
      "stateMutability": "nonpayable",
      "type": "function"
    },
    {
      "inputs": [
        {
          "internalType": "address",
          "name": "from",
          "type": "address"
        },
        {
          "internalType": "address",
          "name": "to",
          "type": "address"
        },
        {
          "internalType": "uint256",
          "name": "tokenId",
          "type": "uint256"
        }
      ],
      "name": "safeTransferFrom",
      "outputs": [],
      "stateMutability": "nonpayable",
      "type": "function"
    },
    {
      "inputs": [
        {
          "internalType": "address",
          "name": "from",
          "type": "address"
        },
        {
          "internalType": "address",
          "name": "to",
          "type": "address"
        },
        {
          "internalType": "uint256",
          "name": "tokenId",
          "type": "uint256"
        },
        {
          "internalType": "bytes",
          "name": "data",
          "type": "bytes"
        }
      ],
      "name": "safeTransferFrom",
      "outputs": [],
      "stateMutability": "nonpayable",
      "type": "function"
    },
    {
      "inputs": [
        {
          "internalType": "address",
          "name": "operator",
          "type": "address"
        },
        {
          "internalType": "bool",
          "name": "approved",
          "type": "bool"
        }
      ],
      "name": "setApprovalForAll",
      "outputs": [],
      "stateMutability": "nonpayable",
      "type": "function"
    },
    {
      "inputs": [
        {
          "internalType": "uint256",
          "name": "_from",
          "type": "uint256"
        },
        {
          "internalType": "uint256",
          "name": "_to",
          "type": "uint256"
        }
      ],
      "name": "snipe",
      "outputs": [
        {
          "internalType": "int256",
          "name": "",
          "type": "int256"
        }
      ],
      "stateMutability": "nonpayable",
      "type": "function"
    },
    {
      "inputs": [
        {
          "internalType": "bytes4",
          "name": "interfaceId",
          "type": "bytes4"
        }
      ],
      "name": "supportsInterface",
      "outputs": [
        {
          "internalType": "bool",
          "name": "",
          "type": "bool"
        }
      ],
      "stateMutability": "view",
      "type": "function"
    },
    {
      "inputs": [],
      "name": "symbol",
      "outputs": [
        {
          "internalType": "string",
          "name": "",
          "type": "string"
        }
      ],
      "stateMutability": "view",
      "type": "function"
    },
    {
      "inputs": [
        {
          "internalType": "uint256",
          "name": "id",
          "type": "uint256"
        }
      ],
      "name": "sync",
      "outputs": [
        {
          "internalType": "int256",
          "name": "",
          "type": "int256"
        }
      ],
      "stateMutability": "nonpayable",
      "type": "function"
    },
    {
      "inputs": [],
      "name": "syncedBlock",
      "outputs": [
        {
          "internalType": "uint256",
          "name": "",
          "type": "uint256"
        }
      ],
      "stateMutability": "view",
      "type": "function"
    },
    {
      "inputs": [],
      "name": "timeOfLastSync",
      "outputs": [
        {
          "internalType": "uint256",
          "name": "",
          "type": "uint256"
        }
      ],
      "stateMutability": "view",
      "type": "function"
    },
    {
      "inputs": [
        {
          "internalType": "uint256",
          "name": "index",
          "type": "uint256"
        }
      ],
      "name": "tokenByIndex",
      "outputs": [
        {
          "internalType": "uint256",
          "name": "",
          "type": "uint256"
        }
      ],
      "stateMutability": "view",
      "type": "function"
    },
    {
      "inputs": [
        {
          "internalType": "address",
          "name": "owner",
          "type": "address"
        },
        {
          "internalType": "uint256",
          "name": "index",
          "type": "uint256"
        }
      ],
      "name": "tokenOfOwnerByIndex",
      "outputs": [
        {
          "internalType": "uint256",
          "name": "",
          "type": "uint256"
        }
      ],
      "stateMutability": "view",
      "type": "function"
    },
    {
      "inputs": [
        {
          "internalType": "uint256",
          "name": "tokenId",
          "type": "uint256"
        }
      ],
      "name": "tokenURI",
      "outputs": [
        {
          "internalType": "string",
          "name": "",
          "type": "string"
        }
      ],
      "stateMutability": "view",
      "type": "function"
    },
    {
      "inputs": [],
      "name": "totalSupply",
      "outputs": [
        {
          "internalType": "uint256",
          "name": "",
          "type": "uint256"
        }
      ],
      "stateMutability": "view",
      "type": "function"
    },
    {
      "inputs": [],
      "name": "totalXp",
      "outputs": [
        {
          "internalType": "uint256",
          "name": "",
          "type": "uint256"
        }
      ],
      "stateMutability": "view",
      "type": "function"
    },
    {
      "inputs": [
        {
          "internalType": "address",
          "name": "from",
          "type": "address"
        },
        {
          "internalType": "address",
          "name": "to",
          "type": "address"
        },
        {
          "internalType": "uint256",
          "name": "tokenId",
          "type": "uint256"
        }
      ],
      "name": "transferFrom",
      "outputs": [],
      "stateMutability": "nonpayable",
      "type": "function"
    },
    {
      "inputs": [
        {
          "internalType": "uint256",
          "name": "from",
          "type": "uint256"
        },
        {
          "internalType": "address",
          "name": "to",
          "type": "address"
        },
        {
          "internalType": "uint256",
          "name": "amount",
          "type": "uint256"
        }
      ],
      "name": "withdraw",
      "outputs": [
        {
          "internalType": "uint256",
          "name": "",
          "type": "uint256"
        }
      ],
      "stateMutability": "nonpayable",
      "type": "function"
    }
  ],
  "bytecode": {
    "object": "0x60806040526001600a553480156200001657600080fd5b50604051620052463803806200524683398101604081905262000039916200097c565b60405180604001604052806008815260200167111e58590813919560c21b815250604051806040016040528060048152602001631913919560e21b815250816000908162000088919062000b05565b50600162000097828262000b05565b5050601780546001600160a01b038087166001600160a01b031992831617909255601880549286169290911691909117905550620000d462000180565b600b5560005b815181101562000176576000806200011484848151811062000100576200010062000bd1565b6020026020010151620001fb60201b60201c565b6000918252601360209081526040928390208251815590820151600182015591810151600283015560608101516003830155608001516004909101805460ff1916911515919091179055508190506200016d8162000bfd565b915050620000da565b5050505062000cce565b60185460408051633fabe5a360e21b815290516000926001600160a01b03169163feaf968c9160048083019260a09291908290030181865afa158015620001cb573d6000803e3d6000fd5b505050506040513d601f19601f82011682018060405250810190620001f1919062000c31565b5091949350505050565b6000620002326040518060a00160405280600081526020016000815260200160008152602001600081526020016000151581525090565b60006200023e60085490565b90506107d08110620002635760405163794bb39b60e01b815260040160405180910390fd5b6200026f8482620002f2565b620002a46040518060a00160405280600081526020016000815260200160008152602001600081526020016000151581525090565b620002b2816103e862000497565b60405182906001600160a01b038716907f30385c845b448a36257a6a1716e6ad2e1bc2cbe333cde1e69fe849ad6511adfe90600090a39094909350915050565b6001600160a01b0382166200034e5760405162461bcd60e51b815260206004820181905260248201527f4552433732313a206d696e7420746f20746865207a65726f206164647265737360448201526064015b60405180910390fd5b6000818152600260205260409020546001600160a01b031615620003b55760405162461bcd60e51b815260206004820152601c60248201527f4552433732313a20746f6b656e20616c7265616479206d696e74656400000000604482015260640162000345565b620003c5600083836001620004dd565b6000818152600260205260409020546001600160a01b0316156200042c5760405162461bcd60e51b815260206004820152601c60248201527f4552433732313a20746f6b656e20616c7265616479206d696e74656400000000604482015260640162000345565b6001600160a01b038216600081815260036020908152604080832080546001019055848352600290915280822080546001600160a01b0319168417905551839291907fddf252ad1be2c89b69c2b068fc378daa952ba7f163c4a11628f55a4df523b3ef908290a45050565b8082600001818151620004ab919062000c86565b90525060115482511115620004c05781516011555b8060106000828254620004d4919062000c86565b90915550505050565b620004f6848484846200051660201b620029651760201c565b506000908152601360205260409020436003909101555050565b50505050565b6200052f848484846200067a60201b62002aa51760201c565b6001811115620005a85760405162461bcd60e51b815260206004820152603560248201527f455243373231456e756d657261626c653a20636f6e736563757469766520747260448201527f616e7366657273206e6f7420737570706f727465640000000000000000000000606482015260840162000345565b816001600160a01b03851662000607576200060181600880546000838152600960205260408120829055600182018355919091527ff3f7a9fe364faab93b216da50a3214154f22a0a2b415b23a84c8169e8b636ee30155565b6200062d565b836001600160a01b0316856001600160a01b0316146200062d576200062d858262000709565b6001600160a01b0384166200064d576200064781620007b6565b62000673565b846001600160a01b0316846001600160a01b031614620006735762000673848262000870565b5050505050565b600181111562000510576001600160a01b03841615620006c4576001600160a01b03841660009081526003602052604081208054839290620006be90849062000ca2565b90915550505b6001600160a01b0383161562000510576001600160a01b03831660009081526003602052604081208054839290620006fe90849062000c86565b909155505050505050565b600060016200072384620008c160201b620016aa1760201c565b6200072f919062000ca2565b60008381526007602052604090205490915080821462000783576001600160a01b03841660009081526006602090815260408083208584528252808320548484528184208190558352600790915290208190555b5060009182526007602090815260408084208490556001600160a01b039094168352600681528383209183525290812055565b600854600090620007ca9060019062000ca2565b60008381526009602052604081205460088054939450909284908110620007f557620007f562000bd1565b90600052602060002001549050806008838154811062000819576200081962000bd1565b600091825260208083209091019290925582815260099091526040808220849055858252812055600880548062000854576200085462000cb8565b6001900381819060005260206000200160009055905550505050565b60006200088883620008c160201b620016aa1760201c565b6001600160a01b039093166000908152600660209081526040808320868452825280832085905593825260079052919091209190915550565b60006001600160a01b0382166200092d5760405162461bcd60e51b815260206004820152602960248201527f4552433732313a2061646472657373207a65726f206973206e6f7420612076616044820152683634b21037bbb732b960b91b606482015260840162000345565b506001600160a01b031660009081526003602052604090205490565b80516001600160a01b03811681146200096157600080fd5b919050565b634e487b7160e01b600052604160045260246000fd5b6000806000606084860312156200099257600080fd5b6200099d8462000949565b92506020620009ae81860162000949565b60408601519093506001600160401b0380821115620009cc57600080fd5b818701915087601f830112620009e157600080fd5b815181811115620009f657620009f662000966565b8060051b604051601f19603f8301168101818110858211171562000a1e5762000a1e62000966565b60405291825284820192508381018501918a83111562000a3d57600080fd5b938501935b8285101562000a665762000a568562000949565b8452938501939285019262000a42565b8096505050505050509250925092565b600181811c9082168062000a8b57607f821691505b60208210810362000aac57634e487b7160e01b600052602260045260246000fd5b50919050565b601f82111562000b0057600081815260208120601f850160051c8101602086101562000adb5750805b601f850160051c820191505b8181101562000afc5782815560010162000ae7565b5050505b505050565b81516001600160401b0381111562000b215762000b2162000966565b62000b398162000b32845462000a76565b8462000ab2565b602080601f83116001811462000b71576000841562000b585750858301515b600019600386901b1c1916600185901b17855562000afc565b600085815260208120601f198616915b8281101562000ba25788860151825594840194600190910190840162000b81565b508582101562000bc15787850151600019600388901b60f8161c191681555b5050505050600190811b01905550565b634e487b7160e01b600052603260045260246000fd5b634e487b7160e01b600052601160045260246000fd5b60006001820162000c125762000c1262000be7565b5060010190565b80516001600160501b03811681146200096157600080fd5b600080600080600060a0868803121562000c4a57600080fd5b62000c558662000c19565b945060208601519350604086015192506060860151915062000c7a6080870162000c19565b90509295509295909350565b8082018082111562000c9c5762000c9c62000be7565b92915050565b8181038181111562000c9c5762000c9c62000be7565b634e487b7160e01b600052603160045260246000fd5b6145688062000cde6000396000f3fe6080604052600436106103765760003560e01c80635fae8b3d116101d1578063b88d4fde11610102578063decb84dc116100a0578063e64466911161006f578063e644669114610a54578063e8101c1b14610a6a578063e985e9c514610a85578063febb16df14610ace57600080fd5b8063decb84dc146109d1578063e2bbb158146109e7578063e63697c814610a07578063e643ebac14610a2757600080fd5b8063c9e3d730116100dc578063c9e3d73014610960578063d49125071461097b578063d878016114610991578063de1eecb3146109b157600080fd5b8063b88d4fde14610906578063c784cbe614610926578063c87b56dd1461094057600080fd5b8063959526191161016f578063a22cb46511610149578063a22cb46514610886578063add95a51146108a6578063b1357bf9146108c6578063b260c42a146108e657600080fd5b8063959526191461083557806395d89b4114610855578063a14586151461086a57600080fd5b80637038fc4e116101ab5780637038fc4e146107bf57806370a08231146107d5578063823abfd9146107f5578063916b9bef1461081557600080fd5b80635fae8b3d146107795780636352211e1461078c5780636a627842146107ac57600080fd5b80633295787f116102ab57806342842e0e116102495780634b2ec8ee116102235780634b2ec8ee1461055c5780634f6ccce7146107195780635355655914610739578063551e123b1461074c57600080fd5b806342842e0e14610667578063483afb2d1461068757806348f2d243146106fe57600080fd5b8063364164551161028557806336416455146105a9578063379607f514610615578063397b802414610635578063413217b71461065157600080fd5b80633295787f1461055c57806332cb6b0c1461057757806335f2faf01461058d57600080fd5b8063174c67e1116103185780631849c73a116102f25780631849c73a146104e657806323b872dd14610506578063265f63a1146105265780632f745c591461053c57600080fd5b8063174c67e1146104a157806318160ddd146104b7578063181f6cdd146104cc57600080fd5b8063081812fc11610354578063081812fc1461040d578063095ea7b3146104455780630ba4ae301461046757806310d4f96d1461048b57600080fd5b8063019e242e1461037b57806301ffc9a7146103cb57806306fdde03146103eb575b600080fd5b34801561038757600080fd5b506103b6610396366004613a5b565b601560209081526000928352604080842090915290825290205460ff1681565b60405190151581526020015b60405180910390f35b3480156103d757600080fd5b506103b66103e6366004613a93565b610ae4565b3480156103f757600080fd5b50610400610b0f565b6040516103c29190613b00565b34801561041957600080fd5b5061042d610428366004613b13565b610ba1565b6040516001600160a01b0390911681526020016103c2565b34801561045157600080fd5b50610465610460366004613b48565b610bc8565b005b34801561047357600080fd5b5061047d61025881565b6040519081526020016103c2565b34801561049757600080fd5b5061047d60105481565b3480156104ad57600080fd5b5061047d60125481565b3480156104c357600080fd5b5060085461047d565b3480156104d857600080fd5b5061047d65b5e620f4800081565b3480156104f257600080fd5b5061047d610501366004613b72565b610ce2565b34801561051257600080fd5b50610465610521366004613b9e565b610e0d565b34801561053257600080fd5b5061047d600c5481565b34801561054857600080fd5b5061047d610557366004613b48565b610e3e565b34801561056857600080fd5b5061047d66016bcc41e9000081565b34801561058357600080fd5b5061047d6107d081565b34801561059957600080fd5b5061047d6714d1120d7b16000081565b3480156105b557600080fd5b506105f46105c4366004613bda565b601460209081526000928352604080842090915290825290205460ff81169061010090046001600160f81b031682565b6040805160ff90931683526001600160f81b039091166020830152016103c2565b34801561062157600080fd5b5061047d610630366004613b13565b610ed4565b34801561064157600080fd5b5061047d670de0b6b3a764000081565b34801561065d57600080fd5b5061047d60115481565b34801561067357600080fd5b50610465610682366004613b9e565b6110fe565b34801561069357600080fd5b506106d46106a2366004613b13565b601360205260009081526040902080546001820154600283015460038401546004909401549293919290919060ff1685565b6040805195865260208601949094529284019190915260608301521515608082015260a0016103c2565b34801561070a57600080fd5b5061047d660110d9316ec00081565b34801561072557600080fd5b5061047d610734366004613b13565b611119565b61047d610747366004613b13565b6111ac565b34801561075857600080fd5b5061076c610767366004613c4b565b61129f565b6040516103c29190613ca5565b610465610787366004613bda565b61142f565b34801561079857600080fd5b5061042d6107a7366004613b13565b6115a3565b61047d6107ba366004613ceb565b611603565b3480156107cb57600080fd5b5061047d600b5481565b3480156107e157600080fd5b5061047d6107f0366004613ceb565b6116aa565b34801561080157600080fd5b506103b6610810366004613d15565b611730565b34801561082157600080fd5b50610465610830366004613b13565b6117e7565b34801561084157600080fd5b50610465610850366004613d51565b611912565b34801561086157600080fd5b50610400611a6a565b34801561087657600080fd5b5061047d670853a0d2313c000081565b34801561089257600080fd5b506104656108a1366004613dab565b611a79565b3480156108b257600080fd5b5060175461042d906001600160a01b031681565b3480156108d257600080fd5b5061047d6108e1366004613b13565b611a88565b3480156108f257600080fd5b50610465610901366004613b13565b611d0c565b34801561091257600080fd5b50610465610921366004613e52565b611dc5565b34801561093257600080fd5b5061047d655af3107a400081565b34801561094c57600080fd5b5061040061095b366004613b13565b611dfd565b34801561096c57600080fd5b5061047d662386f26fc1000081565b34801561098757600080fd5b5061047d600e5481565b34801561099d57600080fd5b5061047d6109ac366004613f12565b611e70565b3480156109bd57600080fd5b5061047d6109cc366004613a5b565b6120b9565b3480156109dd57600080fd5b5061047d600d5481565b3480156109f357600080fd5b5061047d610a02366004613a5b565b61246c565b348015610a1357600080fd5b5061047d610a22366004613f12565b61267b565b348015610a3357600080fd5b5061047d610a42366004613b13565b60166020526000908152604090205481565b348015610a6057600080fd5b5061047d600f5481565b348015610a7657600080fd5b5061047d66038d7ea4c6800081565b348015610a9157600080fd5b506103b6610aa0366004613f37565b6001600160a01b03918216600090815260056020908152604080832093909416825291909152205460ff1690565b348015610ada57600080fd5b5061047d6103e881565b60006001600160e01b0319821663780e9d6360e01b1480610b095750610b0982612b2d565b92915050565b606060008054610b1e90613f61565b80601f0160208091040260200160405190810160405280929190818152602001828054610b4a90613f61565b8015610b975780601f10610b6c57610100808354040283529160200191610b97565b820191906000526020600020905b815481529060010190602001808311610b7a57829003601f168201915b5050505050905090565b6000610bac82612b7d565b506000908152600460205260409020546001600160a01b031690565b6000610bd3826115a3565b9050806001600160a01b0316836001600160a01b031603610c455760405162461bcd60e51b815260206004820152602160248201527f4552433732313a20617070726f76616c20746f2063757272656e74206f776e656044820152603960f91b60648201526084015b60405180910390fd5b336001600160a01b0382161480610c615750610c618133610aa0565b610cd35760405162461bcd60e51b815260206004820152603d60248201527f4552433732313a20617070726f76652063616c6c6572206973206e6f7420746f60448201527f6b656e206f776e6572206f7220617070726f76656420666f7220616c6c0000006064820152608401610c3c565b610cdd8383612bdf565b505050565b6000836004610cf2823383611730565b610d1357818160405163acb8d02d60e01b8152600401610c3c929190613fcd565b600086815260136020526040812060040154879160ff90911615159003610d5057604051632080e3d360e01b815260048101829052602401610c3c565b60008513610d5d57600080fd5b60008781526013602052604090206001810154861315610d9857806001015460405163689b65e960e11b8152600401610c3c91815260200190565b60018082018054889003905560008881526013602052604081209091018054889290610dc5908490613ff7565b9091555050604051868152879089907fecf7a2a9b87e864721b005a74148c7e41af15fa580f04024f55a5902b32e556e9060200160405180910390a350939695505050505050565b610e173382612c4d565b610e335760405162461bcd60e51b8152600401610c3c90614017565b610cdd838383612ccb565b6000610e49836116aa565b8210610eab5760405162461bcd60e51b815260206004820152602b60248201527f455243373231456e756d657261626c653a206f776e657220696e646578206f7560448201526a74206f6620626f756e647360a81b6064820152608401610c3c565b506001600160a01b03919091166000908152600660209081526040808320938352929052205490565b6000816007610ee4823383611730565b610f0557818160405163acb8d02d60e01b8152600401610c3c929190613fcd565b600084815260136020526040812060040154859160ff90911615159003610f4257604051632080e3d360e01b815260048101829052602401610c3c565b6000858152601560209081526040808320600e54845290915290205460ff1615610f8d57600e54604051636bd4745f60e01b8152610c3c918791600401918252602082015260400190565b6000858152601560209081526040808320600e5484528252808320805460ff1916600190811790915588845260138352818420825160a0810184528154815291810154938201939093526002830154918101919091526003820154606082015260049091015460ff1615156080820152908061100e655af3107a4000612e3c565b90506000600c5413156110325761102b600c548460000151612ed1565b9150611057565b6000611044600c548560000151612f16565b90935090506110538183614064565b9150505b81836020018181516110699190613ff7565b9052506110768382612ff6565b600088815260136020908152604091829020855181558582015160018201558583015160028201556060860151600382015560808601516004909101805460ff1916911515919091179055905183815289917f80d2137c01c20957d2640ac104067c27bdfb6f6405d354a50e4e0663dbfd3406910160405180910390a2509695505050505050565b610cdd83838360405180602001604052806000815250611dc5565b600061112460085490565b82106111875760405162461bcd60e51b815260206004820152602c60248201527f455243373231456e756d657261626c653a20676c6f62616c20696e646578206f60448201526b7574206f6620626f756e647360a01b6064820152608401610c3c565b6008828154811061119a5761119a614077565b90600052602060002001549050919050565b60008160026111bc823383611730565b6111dd57818160405163acb8d02d60e01b8152600401610c3c929190613fcd565b600084815260136020526040812060040154859160ff9091161515900361121a57604051632080e3d360e01b815260048101829052602401610c3c565b600085815260166020526040812043905561123434613037565b90508060136000888152602001908152602001600020600101600082825461125c9190613ff7565b909155505060405181815286907ff99ef896dbec5c9f8ed65fcd703b977e36f533d2dbe0f54b055724102c66935b9060200160405180910390a295945050505050565b60608167ffffffffffffffff8111156112ba576112ba613de2565b6040519080825280602002602001820160405280156112e3578160200160208202803683370190505b509050836001600160a01b03166112f9866115a3565b6001600160a01b03160361134e5760005b8281101561134857600182828151811061132657611326614077565b91151560209283029190910190910152806113408161408d565b91505061130a565b50611427565b60008581526014602090815260408083206001600160a01b0388168452825280832081518083018352905460ff8116825261010090046001600160f81b0316818401819052898552601390935292206003015410156114255760005b83811015611423576113e78585838181106113c7576113c7614077565b90506020020160208101906113dc91906140a6565b835160ff169061305c565b1561141157600183828151811061140057611400614077565b911515602092830291909101909101525b8061141b8161408d565b9150506113aa565b505b505b949350505050565b6000828152601360209081526040808320815160a081018352815481526001820154938101849052600282015492810192909252600381015460608301526004015460ff161515608082015291811261149e57604051634fd4b9f760e01b815260048101859052602401610c3c565b60006114a934613037565b90506114b7826000196140c1565b8112156114da57604051630e874cb160e41b815260048101829052602401610c3c565b6114f3836114ee66016bcc41e90000612e3c565b612ff6565b80836020018181516115059190613ff7565b905250600085815260136020908152604091829020855181559085015160018201559084015160028201556060840151600382015560808401516004909101805460ff191691151591909117905561156661155f866115a3565b8587612ccb565b60405185906001600160a01b038616907fa5ee7a2b0254fce91deed604506790ed7fa072d0b14cba4859c3bc8955b9caac90600090a35050505050565b6000818152600260205260408120546001600160a01b031680610b095760405162461bcd60e51b8152602060048201526018602482015277115490cdcc8c4e881a5b9d985b1a59081d1bdad95b88125160421b6044820152606401610c3c565b60008061160f34613037565b9050670de0b6b3a764000081121561163d57604051633e0432ef60e01b815260048101829052602401610c3c565b60008061164985613089565b602081810195865260016080830181815260008581526013909352604092839020845181559751918801919091559082015160028701556060909101516003860155516004909401805460ff19169415159490941790935550909392505050565b60006001600160a01b0382166117145760405162461bcd60e51b815260206004820152602960248201527f4552433732313a2061646472657373207a65726f206973206e6f7420612076616044820152683634b21037bbb732b960b91b6064820152608401610c3c565b506001600160a01b031660009081526003602052604090205490565b6000826001600160a01b0316611745856115a3565b6001600160a01b03160361175b575060016117e0565b60008481526014602090815260408083206001600160a01b038716845282529182902082518084019093525460ff81168084526101009091046001600160f81b0316918301919091526117ae908461305c565b80156117dc575080602001516001600160f81b03166013600087815260200190815260200160002060030154105b9150505b9392505050565b8060016117f5823383611730565b61181657818160405163acb8d02d60e01b8152600401610c3c929190613fcd565b600083815260136020526040812060040154849160ff9091161515900361185357604051632080e3d360e01b815260048101829052602401610c3c565b60008481526013602052604090206002015415611886576040516339d0e29960e01b815260048101859052602401610c3c565b600084815260136020526040812060010154136118b957604051632449a18d60e01b815260048101859052602401610c3c565b60008481526013602052604090819020600401805460ff19169055517fed48e4e899b34abded07dd8f092a22585a3fdec7db6b83f3927af165bf04cb1e906119049086815260200190565b60405180910390a150505050565b823361191d826115a3565b6001600160a01b0316146119475760405163d64dfb0160e01b815260048101829052602401610c3c565b4360005b83811015611a2757600085858381811061196757611967614077565b905060200281019061197991906140f1565b61198290614111565b90508060200151516000036119ba57600087815260146020908152604080832084516001600160a01b03168452909152812055611a1e565b60405180604001604052806119d28360200151613178565b60ff90811682526001600160f81b0380871660209384015260008b815260148452604080822087516001600160a01b031683528552902084519490930151166101000292169190911790555b5060010161194b565b507f5015559e4f379aa0dd2effee572c916b09bb68ed41ad9ab127c8066f052e1643858585604051611a5b939291906141d9565b60405180910390a15050505050565b606060018054610b1e90613f61565b611a843383836131c6565b5050565b600081815260136020526040812060040154829060ff1615158203611ac357604051632080e3d360e01b815260048101829052602401610c3c565b601754604080516318160ddd60e01b815290516000926001600160a01b0316916318160ddd9160048083019260209291908290030181865afa158015611b0d573d6000803e3d6000fd5b505050506040513d601f19601f82011682018060405250810190611b3191906142e9565b905080600003611b5457604051632a8ef6b160e11b815260040160405180910390fd5b610258601254611b649190614064565b421015611b84576040516334490f5560e11b815260040160405180910390fd5b6000611b8e613294565b90506000611bab600b5483611ba39190614302565b600b5461330c565b90506000611bb882613330565b905066038d7ea4c68000811015611be55760405163e746612160e01b815260048101839052602401610c3c565b42601255600b839055600e8054600f55439055600c54600d55611c10611c0a85613347565b836133b1565b600c55600087815260136020908152604091829020825160a081018452815481526001820154928101929092526002810154928201929092526003820154606082015260049091015460ff1615156080820152611c80816114ee611c7b8566016bcc41e90000614064565b612e3c565b600088815260136020908152604091829020835181558382015160018201558383015160028201556060840151600382015560808401516004909101805460ff191691151591909117905590518981527fff14d8520387b9b85d2a017dc41ae15db04a22d4c67deac04eb45048631ffa86910160405180910390a1600c54965050505050505b50919050565b806000611d1a823383611730565b611d3b57818160405163acb8d02d60e01b8152600401610c3c929190613fcd565b600083815260136020526040902060040154839060ff161515600103611d77576040516307e1313160e11b815260048101829052602401610c3c565b60008481526013602052604090819020600401805460ff19166001179055517f3ec796be1be7d03bff3a62b9fa594a60e947c1809bced06d929f145308ae57ce906119049086815260200190565b611dcf3383612c4d565b611deb5760405162461bcd60e51b8152600401610c3c90614017565b611df7848484846133d6565b50505050565b6060611e0882612b7d565b6000611e1f60408051602081019091526000815290565b90506000815111611e3f57604051806020016040528060008152506117e0565b80611e4984613409565b604051602001611e5a929190614329565b6040516020818303038152906040529392505050565b6000600a54600114611eb15760405162461bcd60e51b815260206004820152600a6024820152695245454e5452414e435960b01b6044820152606401610c3c565b6002600a55836006611ec4823383611730565b611ee557818160405163acb8d02d60e01b8152600401610c3c929190613fcd565b600086815260136020526040812060040154879160ff90911615159003611f2257604051632080e3d360e01b815260048101829052602401610c3c565b60008781526013602052604090206002810154861115611f5857604051630b32a9c760e21b815260048101879052602401610c3c565b6002810180548790039055601754604051632770a7eb60e21b8152336004820152602481018890526001600160a01b0390911690639dc29fac90604401600060405180830381600087803b158015611faf57600080fd5b505af1158015611fc3573d6000803e3d6000fd5b505050506000611fd9611fd4613294565b61349c565b611fe7886305f5e100614358565b611ff1919061436f565b90506000886001600160a01b03168260405160006040518083038185875af1925050503d8060008114612040576040519150601f19603f3d011682016040523d82523d6000602084013e612045565b606091505b505090508061207057604051637eaf0ff960e11b815233600482015260248101839052604401610c3c565b6040518881528a9033907ff3a670cd3af7d64b488926880889d08a8585a138ff455227af6737339a1ec2629060200160405180910390a3506001600a5598975050505050505050565b600082815260136020526040812060040154839060ff16151582036120f457604051632080e3d360e01b815260048101829052602401610c3c565b600083815260136020526040812060040154849160ff9091161515900361213157604051632080e3d360e01b815260048101829052602401610c3c565b6000858152601560209081526040808320600f54845290915290205460ff161561217c57600f54604051630cff449b60e21b8152610c3c918791600401918252602082015260400190565b6001601560008781526020019081526020016000206000600f54815260200190815260200160002060006101000a81548160ff0219169083151502179055506000601360008781526020019081526020016000206040518060a0016040529081600082015481526020016001820154815260200160028201548152602001600382015481526020016004820160009054906101000a900460ff16151515158152505090506000601360008781526020019081526020016000206040518060a0016040529081600082015481526020016001820154815260200160028201548152602001600382015481526020016004820160009054906101000a900460ff1615151515815250509050600080600d541315612318576122a1600d548460000151612ed1565b90506122c6816122c1670853a0d2313c0000670de0b6b3a7640000614302565b6133b1565b836020018181516122d79190613ff7565b9052506122ec81670853a0d2313c00006133b1565b826020018181516122fd9190613ff7565b905250612313826114ee65b5e620f48000612e3c565b612366565b600061232a600d548560000151612f16565b6020860180519294509092508391612343908390613ff7565b9052506123508482612ff6565b612364836114ee660110d9316ec000612e3c565b505b82601360008a81526020019081526020016000206000820151816000015560208201518160010155604082015181600201556060820151816003015560808201518160040160006101000a81548160ff02191690831515021790555090505081601360008981526020019081526020016000206000820151816000015560208201518160010155604082015181600201556060820151816003015560808201518160040160006101000a81548160ff02191690831515021790555090505086887f0e7d191e2306ac0b4fbf5a2cb60c28ddb5a0507bd6dc06322d0d1ea0925eabd78360405161245791815260200190565b60405180910390a3945050505b505092915050565b600082600361247c823383611730565b61249d57818160405163acb8d02d60e01b8152600401610c3c929190613fcd565b600085815260136020526040812060040154869160ff909116151590036124da57604051632080e3d360e01b815260048101829052602401610c3c565b600086815260166020908152604080832043905560139091529020600281015486111561251d57604051630b32a9c760e21b815260048101879052602401610c3c565b600281018054879003905561253186613347565b8160010160008282546125449190613ff7565b90915550506017546040516323b872dd60e01b8152336004820152306024820152604481018890526000916001600160a01b0316906323b872dd906064016020604051808303816000875af11580156125a1573d6000803e3d6000fd5b505050506040513d601f19601f820116820180604052508101906125c59190614391565b9050806125d157600080fd5b601754604051632770a7eb60e21b8152306004820152602481018990526001600160a01b0390911690639dc29fac90604401600060405180830381600087803b15801561261d57600080fd5b505af1158015612631573d6000803e3d6000fd5b50505050877f06da3309189fa49284f335d2c2bcb4cb0b8ad2a59ad92a9bdebeeb8f1ceba5118860405161266791815260200190565b60405180910390a250949695505050505050565b600083600561268b823383611730565b6126ac57818160405163acb8d02d60e01b8152600401610c3c929190613fcd565b600086815260136020526040812060040154879160ff909116151590036126e957604051632080e3d360e01b815260048101829052602401610c3c565b60008781526016602052604090205443900361271a5760405163194af33f60e21b8152436004820152602401610c3c565b6000878152601360205260409020600181015461273687613347565b131561275d57806001015460405163689b65e960e11b8152600401610c3c91815260200190565b600061276a611fd4613294565b6127786305f5e1004761436f565b6127829190614358565b9050600061281288601760009054906101000a90046001600160a01b03166001600160a01b03166318160ddd6040518163ffffffff1660e01b8152600401602060405180830381865afa1580156127dd573d6000803e3d6000fd5b505050506040513d601f19601f8201168201806040525081019061280191906142e9565b61280b9190614064565b83906134ee565b90506714d1120d7b1600008110156128405760405163f51aaf6560e01b815260048101829052602401610c3c565b600061284b60085490565b612855908461436f565b905060008985600201546128699190614064565b90508181111561288f57604051630dd16eb960e41b815260048101839052602401610c3c565b6128988a613347565b600186018054919091039055600285018190556017546040516340c10f1960e01b81526001600160a01b038d81166004830152602482018d9052909116906340c10f1990604401600060405180830381600087803b1580156128f957600080fd5b505af115801561290d573d6000803e3d6000fd5b505050508a6001600160a01b03168c7fcf7d23a3cbe4e8b36ff82fd1b05b1b17373dc7804b4ebbd6e2356716ef2023728c60405161294d91815260200190565b60405180910390a350979a9950505050505050505050565b61297184848484612aa5565b60018111156129e05760405162461bcd60e51b815260206004820152603560248201527f455243373231456e756d657261626c653a20636f6e7365637574697665207472604482015274185b9cd9995c9cc81b9bdd081cdd5c1c1bdc9d1959605a1b6064820152608401610c3c565b816001600160a01b038516612a3c57612a3781600880546000838152600960205260408120829055600182018355919091527ff3f7a9fe364faab93b216da50a3214154f22a0a2b415b23a84c8169e8b636ee30155565b612a5f565b836001600160a01b0316856001600160a01b031614612a5f57612a5f8582613503565b6001600160a01b038416612a7b57612a76816135a0565b612a9e565b846001600160a01b0316846001600160a01b031614612a9e57612a9e848261364f565b5050505050565b6001811115611df7576001600160a01b03841615612aeb576001600160a01b03841660009081526003602052604081208054839290612ae59084906143ae565b90915550505b6001600160a01b03831615611df7576001600160a01b03831660009081526003602052604081208054839290612b22908490614064565b909155505050505050565b60006001600160e01b031982166380ac58cd60e01b1480612b5e57506001600160e01b03198216635b5e139f60e01b145b80610b0957506301ffc9a760e01b6001600160e01b0319831614610b09565b6000818152600260205260409020546001600160a01b0316612bdc5760405162461bcd60e51b8152602060048201526018602482015277115490cdcc8c4e881a5b9d985b1a59081d1bdad95b88125160421b6044820152606401610c3c565b50565b600081815260046020526040902080546001600160a01b0319166001600160a01b0384169081179091558190612c14826115a3565b6001600160a01b03167f8c5be1e5ebec7d5bd14f71427d1e84f3dd0314c0f7b2291e5b200ac8c7c3b92560405160405180910390a45050565b600080612c59836115a3565b9050806001600160a01b0316846001600160a01b03161480612ca057506001600160a01b0380821660009081526005602090815260408083209388168352929052205460ff165b806114275750836001600160a01b0316612cb984610ba1565b6001600160a01b031614949350505050565b826001600160a01b0316612cde826115a3565b6001600160a01b031614612d045760405162461bcd60e51b8152600401610c3c906143c1565b6001600160a01b038216612d665760405162461bcd60e51b8152602060048201526024808201527f4552433732313a207472616e7366657220746f20746865207a65726f206164646044820152637265737360e01b6064820152608401610c3c565b612d738383836001613693565b826001600160a01b0316612d86826115a3565b6001600160a01b031614612dac5760405162461bcd60e51b8152600401610c3c906143c1565b600081815260046020908152604080832080546001600160a01b03199081169091556001600160a01b0387811680865260038552838620805460001901905590871680865283862080546001019055868652600290945282852080549092168417909155905184937fddf252ad1be2c89b69c2b068fc378daa952ba7f163c4a11628f55a4df523b3ef91a4505050565b6000662386f26fc10000612ec783601760009054906101000a90046001600160a01b03166001600160a01b03166318160ddd6040518163ffffffff1660e01b8152600401602060405180830381865afa158015612e9d573d6000803e3d6000fd5b505050506040513d601f19601f82011682018060405250810190612ec191906142e9565b906136b9565b610b09919061436f565b600080612ee9601054846134ee90919063ffffffff16565b90506000841215612f0957612f0681670de0b6b3a76400006143ae565b90505b611427846122c183613347565b6000806000612f30601154856134ee90919063ffffffff16565b90506000612f49601054866134ee90919063ffffffff16565b90506000612f5783836134ee565b90506000612f6d84670de0b6b3a76400006143ae565b90506000612fa9612fa484612f8160085490565b612f9390670de0b6b3a7640000614358565b612f9d91906143ae565b84906134ee565b613347565b90506000612fb7828b6133b1565b90506000612fce87612fc884613330565b906134ee565b905081612fe3670de0b6b3a76400008361436f565b98509850505050505050505b9250929050565b80826000018181516130089190614064565b9052506011548251111561301c5781516011555b806010600082825461302e9190614064565b90915550505050565b6000613041613294565b613052612fa46305f5e1008561436f565b610b0991906140c1565b60008082600781111561307157613071613f95565b600160ff9182161b9490941690931615159392505050565b60006130bf6040518060a00160405280600081526020016000815260200160008152602001600081526020016000151581525090565b60006130ca60085490565b90506107d081106130ee5760405163794bb39b60e01b815260040160405180910390fd5b6130f884826136ce565b61312c6040518060a00160405280600081526020016000815260200160008152602001600081526020016000151581525090565b613138816103e8612ff6565b60405182906001600160a01b038716907f30385c845b448a36257a6a1716e6ad2e1bc2cbe333cde1e69fe849ad6511adfe90600090a39094909350915050565b6000805b8251811015611d065782818151811061319757613197614077565b602002602001015160078111156131b0576131b0613f95565b600160ff9190911681901b92909217910161317c565b816001600160a01b0316836001600160a01b0316036132275760405162461bcd60e51b815260206004820152601960248201527f4552433732313a20617070726f766520746f2063616c6c6572000000000000006044820152606401610c3c565b6001600160a01b03838116600081815260056020908152604080832094871680845294825291829020805460ff191686151590811790915591519182527f17307eab39ab6107e8899845ad3d59bd9653f200f220920489ca2b5937696c31910160405180910390a3505050565b60185460408051633fabe5a360e21b815290516000926001600160a01b03169163feaf968c9160048083019260a09291908290030181865afa1580156132de573d6000803e3d6000fd5b505050506040513d601f19601f820116820180604052508101906133029190614420565b5091949350505050565b670de0b6b3a764000082810290810583148215151661332a57600080fd5b05919050565b6000808212156133435781600003610b09565b5090565b60006001600160ff1b038211156133435760405162461bcd60e51b815260206004820152602860248201527f53616665436173743a2076616c756520646f65736e27742066697420696e2061604482015267371034b73a191a9b60c11b6064820152608401610c3c565b81810282158382058314176133c557600080fd5b670de0b6b3a7640000900592915050565b6133e1848484612ccb565b6133ed84848484613867565b611df75760405162461bcd60e51b8152600401610c3c90614470565b6060600061341683613965565b600101905060008167ffffffffffffffff81111561343657613436613de2565b6040519080825280601f01601f191660200182016040528015613460576020820181803683370190505b5090508181016020015b600019016f181899199a1a9b1b9c1cb0b131b232b360811b600a86061a8153600a850494508461346a57509392505050565b6000808212156133435760405162461bcd60e51b815260206004820181905260248201527f53616665436173743a2076616c7565206d75737420626520706f7369746976656044820152606401610c3c565b60006117e083670de0b6b3a764000084613a3d565b60006001613510846116aa565b61351a91906143ae565b60008381526007602052604090205490915080821461356d576001600160a01b03841660009081526006602090815260408083208584528252808320548484528184208190558352600790915290208190555b5060009182526007602090815260408084208490556001600160a01b039094168352600681528383209183525290812055565b6008546000906135b2906001906143ae565b600083815260096020526040812054600880549394509092849081106135da576135da614077565b9060005260206000200154905080600883815481106135fb576135fb614077565b6000918252602080832090910192909255828152600990915260408082208490558582528120556008805480613633576136336144c2565b6001900381819060005260206000200160009055905550505050565b600061365a836116aa565b6001600160a01b039093166000908152600660209081526040808320868452825280832085905593825260079052919091209190915550565b61369f84848484612965565b506000908152601360205260409020436003909101555050565b60006117e08383670de0b6b3a7640000613a3d565b6001600160a01b0382166137245760405162461bcd60e51b815260206004820181905260248201527f4552433732313a206d696e7420746f20746865207a65726f20616464726573736044820152606401610c3c565b6000818152600260205260409020546001600160a01b0316156137895760405162461bcd60e51b815260206004820152601c60248201527f4552433732313a20746f6b656e20616c7265616479206d696e746564000000006044820152606401610c3c565b613797600083836001613693565b6000818152600260205260409020546001600160a01b0316156137fc5760405162461bcd60e51b815260206004820152601c60248201527f4552433732313a20746f6b656e20616c7265616479206d696e746564000000006044820152606401610c3c565b6001600160a01b038216600081815260036020908152604080832080546001019055848352600290915280822080546001600160a01b0319168417905551839291907fddf252ad1be2c89b69c2b068fc378daa952ba7f163c4a11628f55a4df523b3ef908290a45050565b60006001600160a01b0384163b1561395d57604051630a85bd0160e11b81526001600160a01b0385169063150b7a02906138ab9033908990889088906004016144d8565b6020604051808303816000875af19250505080156138e6575060408051601f3d908101601f191682019092526138e391810190614515565b60015b613943573d808015613914576040519150601f19603f3d011682016040523d82523d6000602084013e613919565b606091505b50805160000361393b5760405162461bcd60e51b8152600401610c3c90614470565b805181602001fd5b6001600160e01b031916630a85bd0160e11b149050611427565b506001611427565b60008072184f03e93ff9f4daa797ed6e38ed64bf6a1f0160401b83106139a45772184f03e93ff9f4daa797ed6e38ed64bf6a1f0160401b830492506040015b6d04ee2d6d415b85acef810000000083106139d0576d04ee2d6d415b85acef8100000000830492506020015b662386f26fc1000083106139ee57662386f26fc10000830492506010015b6305f5e1008310613a06576305f5e100830492506008015b6127108310613a1a57612710830492506004015b60648310613a2c576064830492506002015b600a8310610b095760010192915050565b6000826000190484118302158202613a5457600080fd5b5091020490565b60008060408385031215613a6e57600080fd5b50508035926020909101359150565b6001600160e01b031981168114612bdc57600080fd5b600060208284031215613aa557600080fd5b81356117e081613a7d565b60005b83811015613acb578181015183820152602001613ab3565b50506000910152565b60008151808452613aec816020860160208601613ab0565b601f01601f19169290920160200192915050565b6020815260006117e06020830184613ad4565b600060208284031215613b2557600080fd5b5035919050565b80356001600160a01b0381168114613b4357600080fd5b919050565b60008060408385031215613b5b57600080fd5b613b6483613b2c565b946020939093013593505050565b600080600060608486031215613b8757600080fd5b505081359360208301359350604090920135919050565b600080600060608486031215613bb357600080fd5b613bbc84613b2c565b9250613bca60208501613b2c565b9150604084013590509250925092565b60008060408385031215613bed57600080fd5b82359150613bfd60208401613b2c565b90509250929050565b60008083601f840112613c1857600080fd5b50813567ffffffffffffffff811115613c3057600080fd5b6020830191508360208260051b8501011115612fef57600080fd5b60008060008060608587031215613c6157600080fd5b84359350613c7160208601613b2c565b9250604085013567ffffffffffffffff811115613c8d57600080fd5b613c9987828801613c06565b95989497509550505050565b6020808252825182820181905260009190848201906040850190845b81811015613cdf578351151583529284019291840191600101613cc1565b50909695505050505050565b600060208284031215613cfd57600080fd5b6117e082613b2c565b803560088110613b4357600080fd5b600080600060608486031215613d2a57600080fd5b83359250613d3a60208501613b2c565b9150613d4860408501613d06565b90509250925092565b600080600060408486031215613d6657600080fd5b83359250602084013567ffffffffffffffff811115613d8457600080fd5b613d9086828701613c06565b9497909650939450505050565b8015158114612bdc57600080fd5b60008060408385031215613dbe57600080fd5b613dc783613b2c565b91506020830135613dd781613d9d565b809150509250929050565b634e487b7160e01b600052604160045260246000fd5b6040805190810167ffffffffffffffff81118282101715613e1b57613e1b613de2565b60405290565b604051601f8201601f1916810167ffffffffffffffff81118282101715613e4a57613e4a613de2565b604052919050565b60008060008060808587031215613e6857600080fd5b613e7185613b2c565b93506020613e80818701613b2c565b935060408601359250606086013567ffffffffffffffff80821115613ea457600080fd5b818801915088601f830112613eb857600080fd5b813581811115613eca57613eca613de2565b613edc601f8201601f19168501613e21565b91508082528984828501011115613ef257600080fd5b808484018584013760008482840101525080935050505092959194509250565b600080600060608486031215613f2757600080fd5b83359250613bca60208501613b2c565b60008060408385031215613f4a57600080fd5b613f5383613b2c565b9150613bfd60208401613b2c565b600181811c90821680613f7557607f821691505b602082108103611d0657634e487b7160e01b600052602260045260246000fd5b634e487b7160e01b600052602160045260246000fd5b60088110613fc957634e487b7160e01b600052602160045260246000fd5b9052565b828152604081016117e06020830184613fab565b634e487b7160e01b600052601160045260246000fd5b808201828112600083128015821682158216171561246457612464613fe1565b6020808252602d908201527f4552433732313a2063616c6c6572206973206e6f7420746f6b656e206f776e6560408201526c1c881bdc88185c1c1c9bdd9959609a1b606082015260800190565b80820180821115610b0957610b09613fe1565b634e487b7160e01b600052603260045260246000fd5b60006001820161409f5761409f613fe1565b5060010190565b6000602082840312156140b857600080fd5b6117e082613d06565b80820260008212600160ff1b841416156140dd576140dd613fe1565b8181058314821517610b0957610b09613fe1565b60008235603e1983360301811261410757600080fd5b9190910192915050565b60006040823603121561412357600080fd5b61412b613df8565b61413483613b2c565b815260208084013567ffffffffffffffff8082111561415257600080fd5b9085019036601f83011261416557600080fd5b81358181111561417757614177613de2565b8060051b9150614188848301613e21565b81815291830184019184810190368411156141a257600080fd5b938501935b838510156141c7576141b885613d06565b825293850193908501906141a7565b94860194909452509295945050505050565b8381526040602080830182905282820184905260009190606090818501600587811b8701840189875b8a8110156142d857898303605f190185528135368d9003603e1901811261422857600080fd5b8c018389016001600160a01b0361423e83613b2c565b16855287820135601e1983360301811261425757600080fd5b90910187810191903567ffffffffffffffff81111561427557600080fd5b80871b360383131561428657600080fd5b8589018b9052908190526000908986015b818310156142c3576142b1816142ac86613d06565b613fab565b92890192600192909201918901614297565b97890197955050509186019150600101614202565b50909b9a5050505050505050505050565b6000602082840312156142fb57600080fd5b5051919050565b818103600083128015838313168383128216171561432257614322613fe1565b5092915050565b6000835161433b818460208801613ab0565b83519083019061434f818360208801613ab0565b01949350505050565b8082028115828204841417610b0957610b09613fe1565b60008261438c57634e487b7160e01b600052601260045260246000fd5b500490565b6000602082840312156143a357600080fd5b81516117e081613d9d565b81810381811115610b0957610b09613fe1565b60208082526025908201527f4552433732313a207472616e736665722066726f6d20696e636f72726563742060408201526437bbb732b960d91b606082015260800190565b805169ffffffffffffffffffff81168114613b4357600080fd5b600080600080600060a0868803121561443857600080fd5b61444186614406565b945060208601519350604086015192506060860151915061446460808701614406565b90509295509295909350565b60208082526032908201527f4552433732313a207472616e7366657220746f206e6f6e20455243373231526560408201527131b2b4bb32b91034b6b83632b6b2b73a32b960711b606082015260800190565b634e487b7160e01b600052603160045260246000fd5b6001600160a01b038581168252841660208201526040810183905260806060820181905260009061450b90830184613ad4565b9695505050505050565b60006020828403121561452757600080fd5b81516117e081613a7d56fea26469706673582212200ffb074479914c4e81c8a2c70e09d99a2171d0626cb710ff1509bb489ba5ddb364736f6c63430008110033",
    "linkReferences": {}
  },
  "methodIdentifiers": {
    "DIBS_MINT_SHARE_REWARD()": "a1458615",
    "MAX_SUPPLY()": "32cb6b0c",
    "MIN_COLLATERIZATION_RATIO()": "35f2faf0",
    "MIN_MINT_DYAD_DEPOSIT()": "397b8024",
    "MIN_PRICE_CHANGE_BETWEEN_SYNC()": "e8101c1b",
    "MIN_TIME_BETWEEN_SYNC()": "0ba4ae30",
    "XP_CLAIM_REWARD()": "c784cbe6",
    "XP_DIBS_BURN_REWARD()": "48f2d243",
    "XP_DIBS_MINT_REWARD()": "181f6cdd",
    "XP_LIQUIDATION_REWARD()": "4b2ec8ee",
    "XP_MINT_REWARD()": "febb16df",
    "XP_NORM_FACTOR()": "c9e3d730",
    "XP_SYNC_REWARD()": "3295787f",
    "_idToBlockOfLastDeposit(uint256)": "e643ebac",
    "activate(uint256)": "b260c42a",
    "approve(address,uint256)": "095ea7b3",
    "balanceOf(address)": "70a08231",
    "claim(uint256)": "379607f5",
    "deactivate(uint256)": "916b9bef",
    "deposit(uint256,uint256)": "e2bbb158",
    "dyad()": "add95a51",
    "dyadDelta()": "265f63a1",
    "exchange(uint256)": "53556559",
    "getApproved(uint256)": "081812fc",
    "grant(uint256,(address,uint8[])[])": "95952619",
    "hasPermission(uint256,address,uint8)": "823abfd9",
    "hasPermissions(uint256,address,uint8[])": "551e123b",
    "idToClaimed(uint256,uint256)": "019e242e",
    "idToNft(uint256)": "483afb2d",
    "idToNftPermission(uint256,address)": "36416455",
    "isApprovedForAll(address,address)": "e985e9c5",
    "lastEthPrice()": "7038fc4e",
    "liquidate(uint256,address)": "5fae8b3d",
    "maxXp()": "413217b7",
    "mint(address)": "6a627842",
    "move(uint256,uint256,int256)": "1849c73a",
    "name()": "06fdde03",
    "ownerOf(uint256)": "6352211e",
    "prevDyadDelta()": "decb84dc",
    "prevSyncedBlock()": "e6446691",
    "redeem(uint256,address,uint256)": "d8780161",
    "safeTransferFrom(address,address,uint256)": "42842e0e",
    "safeTransferFrom(address,address,uint256,bytes)": "b88d4fde",
    "setApprovalForAll(address,bool)": "a22cb465",
    "snipe(uint256,uint256)": "de1eecb3",
    "supportsInterface(bytes4)": "01ffc9a7",
    "symbol()": "95d89b41",
    "sync(uint256)": "b1357bf9",
    "syncedBlock()": "d4912507",
    "timeOfLastSync()": "174c67e1",
    "tokenByIndex(uint256)": "4f6ccce7",
    "tokenOfOwnerByIndex(address,uint256)": "2f745c59",
    "tokenURI(uint256)": "c87b56dd",
    "totalSupply()": "18160ddd",
    "totalXp()": "10d4f96d",
    "transferFrom(address,address,uint256)": "23b872dd",
    "withdraw(uint256,address,uint256)": "e63697c8"
  },
  "id": 40
}